:060000000C9430000C948A
:1000060000000C9400000C9400000C9400000C946A
:1000160000000C9400000C9400000C9400000C945A
:1000260000000C9400000C9400000C9400000C944A
:1000360000000C9400000C9400000C9400000C943A
:1000460000000C9400000C9400000C9400000F0FAC
:100056000F0F0400600254000000F894EE27ECBB7A
:10006600F1E0FBBFEBBFE5BF8DE0A2E0BB27ED9360
:100076008A95E9F780E098E0A0E6ED930197E9F725
:10008600E8E5F0E085919591009761F0A591B5912D
:1000960005901590BF01F00105900D920197E1F7CB
:1000A600FB01F0CFEFE5EDBFE8E0EEBFC0E6D2E042
:1000B6000C94C7002497E0E8E883E0E4E983E0E2F3
:1000C600EA83E0E1EB831A9310E01430E0F4E12FC9
:1000D600F0E0E05AFD4FE081E2BBE12FF0E0DE0107
:1000E6001196AE0FBF1FAC91E12FF0E0E05AFD4F25
:1000F600E081EA2BE2BBA5E0B0E00E944201EFE01E
:10010600E2BB1F5FE2CF1881259608952497E0EFA2
:10011600E883E8E6E983E8E5EA83E8E3EB831A9314
:100126000A9310E0143058F5E12FF0E0DE01129644
:10013600AE0FBF1FEC91EBBBA2E0B0E00E94420104
:10014600E9B3E770E730B9F000E00330A0F419B284
:10015600E02FA1E0B0E00E944C01A12DB0E0EA231F
:10016600FB23309731F4A3E01A02F001E00FEF5FB2
:1001760007C00F5FEACFE8EFEBBB1F5FD3CFE4E129
:10018600198108812696089504E120E030E0E8E729
:10019600EABBE0E0EBBBE7BBE8BBE4BBE5BBEFEFEC
:1001A600E1BBE0E0E2BBE3BFE2BFECBFEFBDEEBD0B
:1001B600EDBDECBDE7BDE6BDEBBDEABDE9BDE8BD05
:1001C600E2BDE5BDE4BDE3BDE9BFE5BFE4BFEAB915
:1001D600E0E8E8B9E0E0E0BFE6B9EDB9E6BFEFE098
:1001E600E2BBE8EFEBBB92DF0E2F0B3009F400E029
:1001F6000A30A1F42197E0E0E883A881A43050F406
:10020600E881F0E0E05AFD4FA0E0A083E881EF5FCF
:10021600E883F3CF20E030E02196E5CF043111F0FA
:100226000A3008F024C0AAE0A29FF001A39FF00DB7
:10023600DF01E02FF0E0EA0FFB1F9F0104E1A901B7
:1002460010E01430A0F4E12FF0E0E05AFD4FBF01BA
:10025600DA01EAE0F0E00E946801DB01EC93DA01E2
:10026600EAE0F0E00E945501AF011F5FEACF10E01F
:100276001A3018F41FDF1F5FFBCFB5CFFFCF1096E4
:1002860039F08AEF90E00197F1F7A8951197C9F731
:100296000895EE230E2EFD0121F0EE0FFF1F0A94A6
:1002A600E1F708950024112490E1AA0FBB1F001C5A
:1002B600111C0E1A1F0A18F40E0E1F1E01C0A16093
:1002C6009A9599F7FD01D0010895ECDFFD01089597
:00000001FF
