:080000000C943F000C94000079
:100008000C9400000C9400000C9400000C94000068
:100018000C9400000C9400000C9400000C94000058
:100028000C9400000C9400000C9400000C94000048
:100038000C9400000C9400000C9400000C94000038
:100048000C9400000C9400000C94000000004D6F0C
:1000580068616D6D616420486F7365696E204173D6
:10006800686F6F72690080C00200040054000200CB
:1000780060026E000000F894EE27ECBBF1E0FBBFD5
:10008800EBBFE5BF8DE0A2E0BB27ED938A95E9F7CA
:1000980080E098E0A0E6ED930197E9F7E0E7F0E06B
:1000A80085919591009761F0A591B591059015906E
:1000B800BF01F00105900D920197E1F7FB01F0CF28
:1000C800EFE5EDBFE8E0EEBFC0E6D2E00C946C00CF
:1000D800E7EFEABBE0E0EBBBE7BBE8BBE4BBE5BBB3
:1000E800E1BBE2BBE3BFE2BFECBFEFBDEEBDEDBDE0
:1000F800ECBDE7BDE6BDEBBDEABDE9BDE8BDE2BDCF
:10010800E5BDE4BDE3BDE9BFE5BFE4BFEAB9E0E8AA
:10011800E8B9E0E0E0BFE6B9EDB9E6BFA0E169D033
:10012800A6E5B0E053D0ACE2B1E00E9432012FD096
:10013800F7CFFFCFAA93EBB3EF70AE2FE881E07F44
:10014800EA2BEBBB82E08A95F1F7DA9A82E08A958E
:10015800F1F7DA9882E08A95F1F773C0AA93A8813B
:10016800E9DFE881E295E883A881E4DF81E18A9507
:10017800F1F767C0AA93E881F0E0E05AFD4FE0810B
:10018800A981AE0FEBDF7980688022960895A2E0FE
:100198005AD0ACE0E3DFA1E056D0E0E06E2E7E2E30
:1001A8000895AA93A881AA3011F0791448F0E0E0E4
:1001B800EA936394A62DDEDFA881AA3009F441C032
:1001C8007394D89AA881CADFD8983BC0BA93AA93E7
:1001D8001A93E981FA813196E983FA833197E49198
:1001E8001E2FE03019F0A12FDCDFF3CF1881239602
:1001F8000895AA93EAB3E06FEABBD29AD09AD19A4B
:10020800DA98D898D9989880E881E058E093620203
:10021800E881E054E0936302A4E1B0E00E94320177
:1002280017D016D015D0A0E285DF81E28A95F1F7C4
:10023800A8E294DFA4E092DFA5E890DFA6E08EDFD5
:10024800A6DF219608958ADFA3E0B0E00C9432017E
:10025800A0E370DF81E28A95F1F70895109639F0EE
:100268008AEF90E00197F1F7A8951197C9F70895DB
:00000001FF
