:100000000C9494000C9400000C9400000C94C40018
:100010000C9400000C9400000C9400000C94000060
:100020000C9400000C9400000C9400000C94000050
:100030000C9400000C9400000C9400000C94000040
:100040000C9400000C9400000C9400000C94000030
:100050000C94000000002320454E5445522050418E
:10006000535300202A204348414E474520504153D6
:1000700053004F50454E00434C4F534500534F5291
:10008000525900524553455400454E544552204F55
:100090004C44205041535300454E544552204E4548
:1000A000572050415353004F4B0025750050726547
:1000B000657320496E74657275707420546F207476
:1000C0007970652070617373000080C02D4E414EC1
:1000D000000001002D4E414E00494E460000020036
:1000E000040054000D00600156000F006D01630014
:1000F00005007C017200060081017700060087017F
:100100007D0006008D0183000F00930189000F0020
:10011000A20198000300B101A7000200BE01CA00BD
:100120000100C201D2000000F894EE27ECBBF1E020
:10013000FBBFEBBFE5BFF8E1F1BDE1BD8DE0A2E0A3
:10014000BB27ED938A95E9F780E098E0A0E6ED9370
:100150000197E9F7EEEDF0E085919591009761F058
:10016000A591B59105901590BF01F00105900D92F4
:100170000197E1F7FB01F0CFEFE5EDBFE8E0EEBF5F
:10018000C0E6D1E00C942C020A921A92FA926A9379
:100190007A938A939A93AA93BA93EA93FA93EFB7CE
:1001A000EA939698F894A0E9B1E00E941F05A0E6B2
:1001B000B1E00E94FC02E0E0EA93A1E00E94BF02ED
:1001C000ADE6B1E00E94FC02A2E0B0E00E94910521
:1001D000AE2F0E94E202A8ECB0E00E9468059DD01C
:1001E0007E2EE3E2E71529F40E9423050E94B6055E
:1001F0000CF024C00E94280599F40E94CF02ACE7BD
:10020000B1E00E94FC02E0E8E2BBA0EDB7E00E9492
:100210001F05E0E0E2BBA2E0B0E0E3E0F0E00BC0ED
:100220000E94CF02A1E8B1E00E9432050E941F05A2
:100230000E94230531970E949D050AC0EAE2E71556
:1002400029F40E9423050E94B6050CF001C039D0A4
:100250000E9423050E94B60504F10E94CF02A7E880
:10026000B1E00E94FC02B09917C00E94CF02ADE835
:10027000B1E00E94FC02A0E0B0E0E2EDF4E00E94F8
:100280009D05A2E0B0E0E3E0F0E00E949D05A8EE4D
:10029000B3E00E941F0501C0E6CF0E94CF02E0EF4D
:1002A000E5BB969A7894E991EFBFF991E991B991FC
:1002B000A9919991899179916991F99019900990F1
:1002C00018950E94CF02A3E9B1E00E9432050E9476
:1002D00068050E9423053097F9F00E942805B1F4C3
:1002E0000E94CF02A2EAB1E00E9432050E94680596
:1002F0004DD0A0E0B0E00E949D050E94CF02A1EB8E
:10030000B1E00E9432050E94680508950E9423050D
:1003100031970E949D05DDCF0895E0E1E5BB989BF4
:1003200002C0EAE20895999B02C0E2E308959A9B15
:1003300002C0E3E30895E0E2E5BB989B02C0E1E37D
:100340000895999B02C0E5E308959A9B02C0E6E3F5
:100350000895E0E4E5BB989B02C0E4E30895999B0F
:1003600002C0E8E308959A9B02C0E9E30895E0E83B
:10037000E5BB989B02C0E7E30895999B02C0E0E3C8
:1003800008959A9B02C0E3E20895C7CF0E94BA0580
:1003900000E010E020E030E00E94CF022930E0E0F1
:1003A0003E070CF055C0F901EC54FE4FFF93EF935C
:1003B000B4DFAF91BF91EC930E943705A33221F4D3
:1003C0002430E0E03E070CF417C0E4EBF1E0FA93D0
:1003D000EA93EAEAF0E0FA93EA93EDB7FEB73197D1
:1003E0000E9486055F934F9384E00E94D104289673
:1003F0004F915F91FA012CC00E943705AA32A1F4F7
:10040000215030400E94CF0200E010E00217130795
:1004100054F4A4EBB1E0A00FB11FAC910E94E20232
:100420000F5F1F4FF3CF0FC02830E0E03E0724F4EA
:100430000E943705A33209F406C00E9437050E94C6
:10044000E2022F5F3F4FAAEFB0E00E946805A6CFFF
:100450000E94C10526960895E0E0EABBEBBBE7BB2E
:10046000E8BBE0EFE4BBE0E0E5BBE1BBE2BBE3BF40
:10047000E2BFECBFEFBDEEBDEDBDECBDE7BDE6BD3F
:10048000EBBDEABDE9BDE8BDE2BDE5BDE4BDE3BD50
:10049000E9BFEBB7E062EBBFE0E0E5BFE0E4E4BF5B
:1004A000E0E2EABFE0E0EAB9E0E8E8B9E0E0E0BFB6
:1004B000E6B9EDB9E6BF7894A0E10E942F03E0EC25
:1004C000E1BBB898C09AE0EFE5BB969AE0E1E4158D
:1004D00039F44424552011F4E1E001C0E0E05E2E3F
:1004E0004A92A52D0E94BF02ADEAB0E00E940B0324
:1004F000A4E6B0E00E941F054394E8CFFFCFFFE0E1
:10050000FA95F1F70895AAB3AF70AABBD99AD89813
:10051000F6DFDA9AF4DFA9B3DA98F1DFDA9AEFDFDF
:10052000DA98A7FDF5CF0895A07FAB2BABBBDA9A85
:100530000E947F02DA980E947F020895AA93D998B8
:10054000AAB3A76FAABBBBB3BF70A881EDDFA88118
:10055000A295EADFD99A0C946003DA9A0E947F028E
:10056000E9B3DA980E947F02E07F08950E947F023B
:10057000F4DFAE2FF2DFD998E295EA2B0895AA9323
:100580000E948302E881F0E0E254FE4FE081A981FD
:10059000AE0F0E949E0269809880229608950E9464
:1005A0008302A2E00E949E020E948302ACE00E94AD
:1005B0009E020E948302A1E00E949E02E0E09E2E25
:1005C0006E2E0895AA93EF93FF93A8816894AA30A2
:1005D00019F0E894681430F09394E0E0EA93A92DC0
:1005E000CEDF36F063948FDFD89AA8810E949E02F6
:1005F000FF91EF910C946003BA93AA931A93A98187
:10060000BA81ED91A983BA831E2FE03019F0A12F92
:10061000D9DFF5CF10C0BA93AA931A93E981FA8172
:100620003196E983FA833197E4911E2FE03019F077
:10063000A12FC8DFF3CF188123960895AA27BB27DF
:100640001197F1F70895AA93D998AAB3A76FAABBF7
:10065000BBB3BF70A8810E949402D99A31C0AA93FB
:10066000DA98D8988880E881E058E093C001E88162
:10067000E054E093C1010E943D050E943D050E94A7
:100680003D05DCDFA0E2DFDFD9DFA8E20E94420502
:10069000A4E00E944205A5E80E944205AAB3AF70FB
:1006A000AABBD99A0E94B602E53011F0E0E008C07A
:1006B0000E948302A6E00E949E020E94CF02E1E017
:1006C00021960895BA93AA931A93A981BA81E0E07A
:1006D000EC93AB81BC81EC911E2FE03019F0E0E08F
:1006E000EC9319C0A981BA8111960E9482053097B6
:1006F00089F0E981FA81A181B281EC911E2FE0306D
:1007000041F0A981BA811196ED91FD913196FE9348
:10071000EE9301C010E0E12F188125960895FF9215
:10072000BA93AA9324970E94BA05E0E0F0E0E88724
:10073000F9874E2FE889F9893196E88BF98B319743
:10074000E4913E2FE03009F425C10E944605C1F036
:10075000EDB7FEB7FA93EA934F930E944B054F9182
:100760003E2FE03019F00E94460509F407C00E94B0
:1007700051051CF4EFEFFFEF0FC1EACF432F09C182
:10078000353209F0EEC050E0E889F9893591E88BFF
:10079000F98B303310F03A3308F007C0AAE05A9FC3
:1007A000502DE32FE0535E0FEFCF303009F4F2C04D
:1007B000EDB7FEB7FA93EA934F930E944B054F9122
:1007C0002E2FAE2F0E940505E03039F00E94510512
:1007D0001CF4EFEFFFEFE0C0EBCF203009F4D1C005
:1007E000422F503009F45FEFE32FE33699F40E9473
:1007F0005605EDB7FEB7FA93EA934F930E944B0567
:100800004F91D801EC930E9451051CF4EFEFFFEFDC
:10081000C3C0A1C0E33741F50E945605E52F5150F2
:10082000E030F1F0EDB7FEB7FA93EA934F930E94F0
:100830004B054F913E2FE03019F00E94460539F0EC
:100840000E9451051CF4EFEFFFEFA6C009C01F93F3
:100850000F930F5F1F4FE32FAF91BF91EC93DECF4C
:10086000D801E0E0EC9377C06894F1F8E894F2F8EE
:10087000E32FE43611F0E93619F4E894F1F802C0F8
:10088000E53711F42AE008C0E83711F420E104C08C
:10089000E53209F466C07EC0E0E0EE83EF83689441
:1008A000F0F8E52F5150E03009F446C0EDB7FEB73F
:1008B000FA93EA934F930E944B054F913E2FE132FA
:1008C00038F40E9451051CF4EFEFFFEF65C017C02C
:1008D000F1FC08C06894F1F83D3211F4F2F8E1CF70
:1008E0003B32F9F2203131F4A32F0E941005E030A1
:1008F00031F009C0A32F0E94FC04E03021F4F0FC89
:1009000049C0432F19C0313610F0375505C0313476
:1009100010F0375301C03053E22FAE81BF81F0E0B9
:100920000E947A05DF01E32FF0E0EA0FFB1FEE8360
:10093000FF83E894F0F8B5CF0E945605F2FE06C09A
:10094000EE81FF810E947605EE83FF83EE81FF81B9
:10095000D801ED93FC93E885F9853196E887F9870E
:1009600018C0EDB7FEB7FA93EA934F930E944B0578
:100970004F91E31771F00E9451051CF4EFEFFFEF68
:100980000BC0E885F985309719F4EFEFFFEF04C04D
:1009900001C0D0CEE885F9850E94C1056296FF901E
:1009A0000895FF92F82E23971A930A930E946105E7
:1009B000309719F4EFEFFFEF1AC0DE0111960E9495
:1009C00072058D010E946105EB83FC83DE011596A3
:1009D0000E9472050E948205FA93EA931A930A9381
:1009E000E2E6F3E0FA93EA93DE01189698DE1981C5
:1009F00008812596FF900895AA93E1E0F991F033DC
:100A000010F0FA3308F0EE270895AA93E1E0F99187
:100A1000F03229F0F93010F0FE3008F0EE2708959A
:100A2000AA93E1E0F991F05340F0FA3038F0FF7505
:100A3000F750FA3010F0F03108F0EE2708950E94D8
:100A400068050C94CF02A2E0B0E00E948D050895E5
:100A50000E94C6010F01A0E0B0E00E948D05E015E4
:100A6000F10508950E94FC02A4EFB1E00895A4EB03
:100A7000B1E0A20FB31FAC9108950E941E03A0E342
:100A80000C9423030E949E020C941E03A32F0E9429
:100A90000505E0300895AC85BD85EE85FF85099597
:100AA0000895AA85BB85AC91A0300895EE85FF8599
:100AB0003497EE87FF87AE85BF8514960D911C9104
:100AC0000895DE0117960E9472050E94820508951E
:100AD000109639F080ED97E00197F1F7A8951197FE
:100AE000C9F708950024AF0DB01D0895F195E19563
:100AF000F0400895FA9FF02DEB9FF00DEA9FE02D56
:100B0000F10D0895ED91FC911197089560E070E06A
:100B10007A936A93FA93EA930895119602D0FE2F7E
:100B20001197E199FECFFF93FFB7F894AEBBBFBB1F
:100B3000E09AEDB3FFBFFF91089507D01196EF93B0
:100B4000EF2F03D0EF9111970895E19B02C0A89574
:100B5000FCCF9FB7F894AEBBBFBBE09A8DB3E8174C
:100B600019F0EDBBE29AE19A9FBF089500240E169A
:100B70000F0608955A934A933A932A931A930A9325
:100B800008955D814C813B812A81198108810895F6
:00000001FF
