:0E0000000C942A000C9400000C9400000C9448
:10000E0000000C9400000C9400000C9400000C9462
:10001E0000000C9400000C9400000C9400000C9452
:10002E0000000C9400000C9400000C9400000C9442
:10003E0000000C9400000C9400000C9400000C9432
:10004E0000000C940000F894EE27ECBBF1E0FBBF2F
:10005E00EBBFE5BF8DE0A2E0BB27ED938A95E9F7F4
:10006E0080E098E0A0E6ED930197E9F7EFE5EDBFAC
:10007E00E8E0EEBFC0E6D2E00C944500E0E0EABB5B
:10008E00EBBBEFEFE7BBE0E0E8BBE4BBE5BBE1BBFE
:10009E00E2BBE3BFE2BFECBFEFBDEEBDEDBDECBD1D
:1000AE00E7BDE6BDEBBDEABDE9BDE8BDE2BDE5BD20
:1000BE00E4BDE3BDE9BFE5BFE4BFEAB9E0E8E8B9F6
:1000CE00E0E0E0BFE6B9EDB9E6BFE1E0E8BBC89914
:1000DE000BC0A4E1B0E00E947D00E8B3F0E0F5951E
:1000EE00E795E8BBC89BFECFF2CFFFCF109639F055
:1000FE0080EA9FE00197F1F7A8951197C9F7089547
:00000001FF
