:060000000C9434000C9486
:1000060000000C9400000C9400000C9400000C946A
:1000160000000C9400000C9400000C9400000C945A
:1000260000000C9400000C9400000C9400000C944A
:1000360000000C9400000C9400000C9400000C943A
:1000460000000C9400000C9400000C9400000000CA
:100056000F0F0F0F01000500540004006002560048
:100066000000F894EE27ECBBF1E0FBBFEBBFE5BF69
:100076008DE0A2E0BB27ED938A95E9F780E098E052
:10008600A0E6ED930197E9F7EAE5F0E08591959111
:10009600009761F0A591B59105901590BF01F0010B
:1000A60005900D920197E1F7FB01F0CFEFE5EDBF6B
:1000B600E8E0EEBFC0E6D2E00C94C0002497E0E88A
:1000C600E883E0E4E983E0E2EA83E0E1EB831A9384
:1000D60010E01430E0F4E12FF0E0E05AFD4FE0814B
:1000E600E2BBE12FF0E0DE011196AE0FBF1FAC912F
:1000F600E12FF0E0E05AFD4FE081EA2BE2BBA5E0FC
:10010600B0E00E943B01EFE0E2BB1F5FE2CF188147
:1001160025960895E0E7EBBBC99902C0E1E0089592
:10012600CA9902C0E4E00895CB9902C0E7E00895B9
:10013600E0EBEBBBC89902C0E0E00895C99902C0A4
:10014600E2E00895CA9902C0E5E00895CB9902C09D
:10015600E8E00895E0EDEBBBC99902C0E3E008953D
:10016600CA9902C0E6E00895CB9902C0E9E0089575
:10017600E0EFE8BBE4E10895089504E120E030E013
:10018600E0EFEABBE0E0EBBBE7BBE8BBE4BBE5BB0B
:10019600EFEFE1BBE0E0E2BBE3BFE2BFECBFEFBDE8
:1001A600EEBDEDBDECBDE7BDE6BDEBBDEABDE9BD0F
:1001B600E8BDE2BDE5BDE4BDE3BDE9BFE5BFE4BF23
:1001C600EAB9E0E8E8B9E0E0E0BFE6B9EDB9E6BFD4
:1001D600EFE0E2BBE0EFEBBB9DDF0E2F0B3009F447
:1001E60000E00A30A1F42197E0E0E883A881A4307A
:1001F60050F4E881F0E0E05AFD4FA0E0A083E881EA
:10020600EF5FE883F3CF20E030E02196E5CF0431BD
:1002160011F00A3008F024C0AAE0A29FF001A39FC3
:10022600F00DDF01E02FF0E0EA0FFB1F9F0104E174
:10023600A90110E01430A0F4E12FF0E0E05AFD4FE0
:10024600BF01DA01EAE0F0E00E945801DB01EC931D
:10025600DA01EAE0F0E00E944501AF011F5FEACF54
:1002660010E01A3018F42ADF1F5FFBCFB5CFFFCF9F
:10027600109639F08AEF90E00197F1F7A89511975B
:10028600C9F708950024112490E1AA0FBB1F001C92
:10029600111C0E1A1F0A18F40E0E1F1E01C0A160B3
:1002A6009A9599F7FD01D0010895ECDFFD010895B7
:00000001FF
