:0E0000000C942F000C9400000C9400000C9443
:10000E0000000C9400000C9400000C9400000C9462
:10001E0000000C9400000C9400000C9400000C9452
:10002E0000000C9400000C9400000C9400000C9442
:10003E0000000C9400000C9400000C9400000C9432
:10004E0000000C94000000000100050054000000A8
:10005E00F894EE27ECBBF1E0FBBFEBBFE5BF8DE004
:10006E00A2E0BB27ED938A95E9F780E098E0A0E641
:10007E00ED930197E9F7E6E5F0E08591959100970C
:10008E0061F0A591B59105901590BF01F001059015
:10009E000D920197E1F7FB01F0CFEFE5EDBFE8E040
:1000AE00EEBFC0E6D2E00C949000E0E7E8BBB19959
:1000BE0002C0E1E00895B29902C0E4E00895B39958
:1000CE0002C0E7E00895E0EBE8BBB09902C0E0E0C3
:1000DE000895B19902C0E2E00895B29902C0E5E038
:1000EE000895B39902C0E8E00895E0EDE8BBB19938
:1000FE0002C0E3E00895B29902C0E6E00895B39914
:10010E0002C0E9E00895EAE05E2EE0EFE8BBE52DDF
:10011E000895E0E0EABBEBBBE0EFE7BBE0E0E8BB55
:10012E00E4BBE5BBEFE7E1BBE0E0E2BBE3BFE2BF70
:10013E00ECBFEFBDEEBDEDBDECBDE7BDE6BDEBBD6D
:10014E00EABDE9BDE8BDE2BDE5BDE4BDE3BDE9BF85
:10015E00E5BFE4BFEAB9E0E8E8B9E0E0E0BFE6B940
:10016E00EDB9E6BFA2DF5E2EEAE0E51509F052BA60
:10017E00AAE0B0E00E94C500F5CFFFCF109639F08F
:10018E008AEF90E00197F1F7A8951197C9F70895B6
:00000001FF
