:0A0000000C942A000C9400000C94EC
:10000A0000000C9400000C9400000C9400000C9466
:10001A0000000C9400000C9400000C9400000C9456
:10002A0000000C9400000C9400000C9400000C9446
:10003A0000000C9400000C9400000C9400000C9436
:10004A0000000C9400000C940000F894EE27ECBB1E
:10005A00F1E0FBBFEBBFE5BF8DE0A2E0BB27ED936C
:10006A008A95E9F780E098E0A0E6ED930197E9F731
:10007A00EFE5EDBFE8E0EEBFC0E6D2E00C94450044
:10008A00E0E0EABBEBBBE7BBE8BBE4BBE5BBEFEFF9
:10009A00E1BBE0E0E2BBE3BFE2BFECBFEFBDEEBD18
:1000AA00EDBDECBDE7BDE6BDEBBDEABDE9BDE8BD12
:1000BA00E2BDE5BDE4BDE3BDE9BFE5BFE4BFEAB922
:1000CA00E0E8E8B9E0E0E0BFE6B9EDB9E6BFEFEF96
:1000DA00E8BB46B2E6B3ABE0AE1B7A2EE3E06E2E87
:1000EA00E4E0E2BB5524451418F014D05394FBCF36
:1000FA00E2E0E2BB5524651418F00CD05394FBCF10
:10010A00E1E0E2BB5524751418F004D05394FBCFF8
:10011A00E0CFFFCFA4E6B0E00C949300109639F03C
:10012A0080EA9FE00197F1F7A8951197C9F708951A
:00000001FF
