:0E0000000C9433000C9400000C9400000C943F
:10000E0000000C9400000C9400000C9400000C9462
:10001E0000000C9400000C9400000C9400000C9452
:10002E0000000C9400000C9400000C9400000C9442
:10003E0000000C9400000C9400000C9400000C9432
:10004E0000000C9400003F065B4F666D7D077F67D6
:10005E000A00600254000000F894EE27ECBBF1E0B9
:10006E00FBBFEBBFE5BF8DE0A2E0BB27ED938A950A
:10007E00E9F780E098E0A0E6ED930197E9F7EEE569
:10008E00F0E085919591009761F0A591B59105905D
:10009E001590BF01F00105900D920197E1F7FB015C
:1000AE00F0CFEFE5EDBFE8E0EEBFC0E6D2E00C9496
:1000BE006000E0E0EABBEBBBE7BBE8BBE4BBE5BB43
:1000CE00EFEFE1BBE0E0E2BBE3BFE2BFECBFEFBDB1
:1000DE00EEBDEDBDECBDE7BDE6BDEBBDEABDE9BDD8
:1000EE00E8BDE2BDE5BDE4BDE3BDE9BFE5BFE4BFEC
:1000FE00EAB9E0E8E8B9E0E0E0BFE6B9EDB9E6BF9D
:10010E00989B12C0A4E1B0E00E949D005394E9E0D8
:10011E00E51508F45524E52DF0E0E05AFD4FE08199
:10012E00E2BBE3B3E130E9F3EBCFFFCF109639F04A
:10013E0080EA9FE00197F1F7A8951197C9F7089506
:00000001FF
