:060000000C943E000C947C
:1000060000000C9400000C9400000C9400000C946A
:1000160000000C9400000C9400000C9400000C945A
:1000260000000C9400000C9400000C9400000C944A
:1000360000000C9400000C9400000C9400000C943A
:1000460000000C9400000C9400000C940000102793
:10005600E80364000A00010000100001100001001E
:1000660000002564000080C0010005006600020053
:1000760070026C000000F894EE27ECBBF1E0FBBFC9
:10008600EBBFE5BF8DE0A2E0BB27ED938A95E9F7CC
:1000960080E098E0A0E6ED930197E9F7EEE6F0E060
:1000A60085919591009761F0A591B5910590159070
:1000B600BF01F00105900D920197E1F7FB01F0CF2A
:1000C600EFE5EDBFE8E0EEBFC0E6D2E00C94BE007F
:1000D600E0EEE5BB989902C00E94DF02999902C042
:1000E600E1E008959A9902C0E4E008959B9902C060
:1000F600E7E00895E0EDE5BB989902C0E0E00895D9
:10010600999902C0E2E008959A9902C0E5E008953F
:100116009B9902C0E8E00895E0EBE5BB989903C01F
:10012600ADE30E945703999902C0E3E008959A99B6
:1001360002C0E6E008959B9902C0E9E00895E0E771
:10014600E5BB989903C0ABE20E945703999903C097
:10015600ADE20E9457039A9903C0AAE20E94570390
:100166009B9904C0AFE20E94570304C0E0E0E5BBE0
:10017600E4E108950895EFEFEABBE0E0EBBBE7BBEF
:10018600E8BBE0EFE4BBE0E0E5BBE1BBE2BBE3BF1D
:10019600E2BFECBFEFBDEEBDEDBDECBDE7BDE6BD1C
:1001A600EBBDEABDE9BDE8BDE2BDE5BDE4BDE3BD2D
:1001B600E9BFE5BFE4BFEAB9E0E8E8B9E0E0E0BFDF
:1001C600E6B9EDB9E6BFA0E10E94110381DF5E2E1C
:1001D600A8ECB0E00E949603E4E1E515B1F0E0E694
:1001E600F2E0FA93EA93E8E6F0E0FA93EA93E52D73
:1001F600FF27662777270E94B00384E00E947E02CD
:100206002896A0E6B2E00E940003E0CFFFCFBA93A3
:10021600AA931A930A93AA81BB8112960E94A803F5
:10022600309759F1AA81BB8114960E94A8038F01C9
:10023600309761F00230E0E01E0798F0F801319740
:100246008F01AA81BB811496ED93FC93AA81BB8191
:100256001296ED91FD913196FE93EE933197AC8116
:10026600A083AA81BB810E94A803FF232AF0ED91F7
:10027600FD913196FE93EE9306C0AA81BB81EFEF06
:10028600FFEFED93FC931981088125960895BA93A3
:10029600AA9326970E94B50310E0AC85BD85E0E0E1
:1002A600F0E0ED93FC93EA89FB893196EA8BFB8BB0
:1002B6003197E4912E2FE03009F415C1E12FE0309B
:1002C60039F4253211F411E002C00E945D030AC11F
:1002D600E130A9F4253219F40E945D0302C112E04F
:1002E60040E000E02D3211F401E0FCC02B3211F4A5
:1002F6004BE2F8C0203211F440E2F4C002C0E23012
:1003060039F450E013E0203311F40068EBC003C069
:10031600E33009F0E7C0203310F02A3308F007C0B5
:10032600AAE05A9F502DE22FE0535E0FDBC0E22F6A
:10033600E33649F40E946403E889F989A481AA9303
:100346000E946A03CEC0E33741F40E9464030E9410
:1003560070030E943E031E2F0AC0E03761F40E941C
:1003660064030E9470030E944A031E2F0860026005
:100376000F7730E034C0E43611F0E93611F404604A
:1003860002C0E53731F4E4E5F0E0EE83FF8315E0E3
:100396000CC0E83511F4086003C0E83709F0A1C0C5
:1003A600EEE5F0E0EE83FF8314E002FF14C00E9446
:1003B60064030E947A03AB85AA233AF4EA85FB8597
:1003C6000E94A403EA87FB874DE2403011F01F5FCD
:1003D60001C00B7F04C00E9464030E947A0300FDE3
:1003E60011C0151778F407FF08C002FF04C00B7F81
:1003F600242F115001C020E301C020E20E945D03BA
:100406005150EFCF312F01FF17C03030A1F003FF5D
:1004160006C0EE81FF812591EE83FF8305C0AE8184
:10042600BF812D91AE83BF830E945D03503009F0DA
:1004360051503150EACF4BC020E3EE81FF810E943C
:10044600AC03E887F987EE81FF813296EE83FF835E
:10045600E885F985AA85BB85AE17BF0750F02F5FE3
:10046600A885B985EA85FB85EA1BFB0BEA87FB872E
:10047600EFCF2A3328F003FF02C0295F01C0295DB0
:1004860004FD1AC0213320F4A885B985119709F413
:1004960009C0531710F000FF01C013C020E207FF88
:1004A6000BC020E3006102FF07C00B7F4A930E9446
:1004B6006A03503009F051500E945D03503009F034
:1004C60051503150A885B985129708F0B5CF00FF75
:1004D60008C0503031F05150E0E2EA930E946A03BE
:1004E600F8CF10E0E0CEAC85BD850E94A8030E943F
:1004F600BC0364960895FF92F82E26970E94B703D0
:100506000E948203309719F4EFEFFFEF23C0DE015C
:1005160016960E94A0038D010E948203EE83FF833C
:10052600E0E0E887E987DE011A960E94A0030E94B0
:10053600A803FA93EA931A930A93EAE0F1E0FA938E
:10054600EA93DE011A96A3DE9F01AE81BF81E0E049
:10055600EC93F9010E94BE032A96FF900895AA9390
:10056600EBB3EF70AE2FE881E07FEA2BEBBB82E0C6
:100576008A95F1F7DA9A82E08A95F1F7DA9882E0BD
:100586008A95F1F776C0AA93A881E9DFE881E2951A
:10059600E883A881E4DF81E18A95F1F76AC0AA932E
:1005A600E881F0E0E059FD4FE081A981AE0FEBDF75
:1005B6004980788022960895A2E00E948903ACE0E3
:1005C600E2DFA1E00E948903E0E07E2E4E2E089530
:1005D600AA93A881AA3011F0461448F0E0E0EA9305
:1005E6007394A72DDCDFA881AA3009F442C0439496
:1005F600D89AA881C8DFD8983CC0BA93AA931A9310
:10060600A981BA81ED91A983BA831E2FE03019F032
:10061600A12FDEDFF5CF188123960895AA93EAB3BA
:10062600E06FEABBD29AD09AD19ADA98D898D9983C
:100636006880E881E058E0937202E881E054E09334
:100646007302A4E1B0E00E9496030E948F030E9409
:100656008F030E948F03A0E282DF81E28A95F1F781
:10066600A8E291DFA4E08FDFA5E88DDFA6E08BDFAF
:10067600A3DF21960895BA93AA93A991B991EE277B
:10068600FF276D91662311F03196FBCF0895BA933B
:10069600AA93AA27BB27E991F9910590002011F0AA
:1006A6001196FBCFFD0108950E94EB02ACE2B1E08A
:1006B6000C9496032A93AD85BE85EF85F889099536
:1006C6000895E889F9893497E88BF98B0895AD8503
:1006D600BE85EF85F88909950895A889B989149684
:1006E6000E94A803EE83FF83AE81BF810895A88987
:1006F600B98914960E94A803EA87FB870895DE014C
:100706001C960E94A0030E94A80308950E94C60298
:10071600A3E0B0E00C949603A0E30E94B20281E24B
:100726008A95F1F70895109639F08AEF90E00197CF
:10073600F1F7A8951197C9F708950024AF0DB01DDC
:100746000895F195E195F0400895ED91FC9111978A
:1007560008950590F491E02D08957A936A93FA939B
:10076600EA9308955A934A933A932A931A930A93CB
:1007760008955D814C813B812A8119810881089504
:00000001FF
