:0A0000000C943D000C9400000C94D9
:10000A0000000C9400000C9400000C9400000C9466
:10001A0000000C9400000C9400000C9400000C9456
:10002A0000000C9400000C9400000C9400000C9446
:10003A0000000C9400000C9400000C9400000C9436
:10004A0000000C9400000C9400001027E8036400E0
:10005A000A000100001000011000010054656D70D3
:10006A003D256420000080C002006002700000008C
:10007A00F894EE27ECBBF1E0FBBFEBBFE5BF8DE0E8
:10008A00A2E0BB27ED938A95E9F780E098E0A0E625
:10009A00ED930197E9F7E2E7F0E0859195910097F2
:1000AA0061F0A591B59105901590BF01F0010590F9
:1000BA000D920197E1F7FB01F0CFEFE5EDBFE8E024
:1000CA00EEBFC0E6D2E00C947B00AA93E881E06C14
:1000DA00E7B983E08A95F1F7369A349BFECF349AD2
:1000EA00E4B1F5B1EE0FFF1F0C94DF022F97E0E0A9
:1000FA00EABBEBBBE7BBE8BBE4BBE5BBE1BBE2BBEE
:10010A00E0ECE7B9E1E8E6B9E0E0E0BFA0E10E948F
:10011A00B402A0E0DADF8F01FE01FA93EA93E6E681
:10012A00F0E0FA93EA93F8010E94450366277727DD
:10013A000E94520384E00E9421022896E0E0EA939A
:10014A00A0E00E947502DE010E94A302E2CFFFCF67
:10015A00BA93AA931A930A93AA81BB8112960E9410
:10016A004A03309759F1AA81BB8114960E944A0327
:10017A008F01309761F00230E0E01E0798F0F80135
:10018A0031978F01AA81BB811496ED93FC93AA81C2
:10019A00BB811296ED91FD913196FE93EE933197C4
:1001AA00AC81A083AA81BB810E944A03FF232AF063
:1001BA00ED91FD913196FE93EE9306C0AA81BB8123
:1001CA00EFEFFFEFED93FC931981088125960895CF
:1001DA00BA93AA9326970E94570310E0AC85BD856F
:1001EA00E0E0F0E0ED93FC93EA89FB893196EA8B33
:1001FA00FB8B3197E4912E2FE03009F415C1E12FE2
:10020A00E03039F4253211F411E002C00E94FA02FA
:10021A000AC1E130A9F4253219F40E94FA0202C196
:10022A0012E040E000E02D3211F401E0FCC02B3274
:10023A0011F44BE2F8C0203211F440E2F4C002C0DB
:10024A00E23039F450E013E0203311F40068EBC0D7
:10025A0003C0E33009F0E7C0203310F02A3308F076
:10026A0007C0AAE05A9F502DE22FE0535E0FDBC071
:10027A00E22FE33649F40E940103E889F989A4814F
:10028A00AA930E940703CEC0E33741F40E940103F8
:10029A000E940D030E94E1021E2F0AC0E03761F49A
:1002AA000E9401030E940D030E94ED021E2F0860A6
:1002BA0002600F7730E034C0E43611F0E93611F409
:1002CA00046002C0E53731F4E4E5F0E0EE83FF8331
:1002DA0015E00CC0E83511F4086003C0E83709F0EE
:1002EA00A1C0EEE5F0E0EE83FF8314E002FF14C044
:1002FA000E9401030E941703AB85AA233AF4EA85F8
:10030A00FB850E944103EA87FB874DE2403011F0EA
:10031A001F5F01C00B7F04C00E9401030E941703E4
:10032A0000FD11C0151778F407FF08C002FF04C0CA
:10033A000B7F242F115001C020E301C020E20E944C
:10034A00FA025150EFCF312F01FF17C03030A1F020
:10035A0003FF06C0EE81FF812591EE83FF8305C06E
:10036A00AE81BF812D91AE83BF830E94FA025030C5
:10037A0009F051503150EACF4BC020E3EE81FF81A2
:10038A000E944E03E887F987EE81FF813296EE8359
:10039A00FF83E885F985AA85BB85AE17BF0750F0AC
:1003AA002F5FA885B985EA85FB85EA1BFB0BEA87DF
:1003BA00FB87EFCF2A3328F003FF02C0295F01C071
:1003CA00295D04FD1AC0213320F4A885B985119747
:1003DA0009F409C0531710F000FF01C013C020E24E
:1003EA0007FF0BC020E3006102FF07C00B7F4A939F
:1003FA000E940703503009F051500E94FA0250300F
:10040A0009F051503150A885B985129708F0B5CF37
:10041A0000FF08C0503031F05150E0E2EA930E94E8
:10042A000703F8CF10E0E0CEAC85BD850E944A03F1
:10043A000E945E0364960895FF92F82E26970E9402
:10044A0059030E941F03309719F4EFEFFFEF23C0FF
:10045A00DE0116960E943D038D010E941F03EE8362
:10046A00FF83E0E0E887E987DE011A960E943D03F0
:10047A000E944A03FA93EA931A930A93EDEAF0E088
:10048A00FA93EA93DE011A96A3DE9F01AE81BF8139
:10049A00E0E0EC93F9010E9460032A96FF90089528
:1004AA00AA93E5B3EF70AE2FE881E07FEA2BE5BBB4
:1004BA0082E08A95F1F7AA9A82E08A95F1F7AA98DA
:1004CA0082E08A95F1F776C0AA93A881E9DFE881EC
:1004DA00E295E883A881E4DF81E18A95F1F76AC0B1
:1004EA00AA93E881F0E0E05AFD4FE081A981AE0FBE
:1004FA00EBDF5980488022960895A2E00E942603E5
:10050A00ACE0E2DFA1E00E942603E0E04E2E5E2E80
:10051A000895AA93A881AA3011F0571448F0E0E090
:10052A00EA934394A42DDCDFA881AA3009F442C0DF
:10053A005394A89AA881C8DFA8983CC0BA93AA93F2
:10054A001A93A981BA81ED91A983BA831E2FE0304B
:10055A0019F0A12FDEDFF5CF188123960895AA930B
:10056A00E4B3E06FE4BBA29AA09AA19AAA98A898C9
:10057A00A9987880E881E058E0936202E881E05423
:10058A00E0936302A4E1B0E00E9433030E942C03CB
:10059A000E942C030E942C03A0E282DF81E28A954A
:1005AA00F1F7A8E291DFA4E08FDFA5E88DDFA6E0EE
:1005BA008BDFA3DF21960895BA93AA93A991B991E3
:1005CA00EE27FF276D91662311F03196FBCF089530
:1005DA00BA93AA93AA27BB27E991F991059000201B
:1005EA0011F01196FBCFFD0108952A93AD85BE85C2
:1005FA00EF85F88909950895E889F9893497E88B90
:10060A00F98B0895AD85BE85EF85F889099508951A
:10061A00A889B98914960E944A03EE83FF83AE81A2
:10062A00BF810895A889B98914960E944A03EA8766
:10063A00FB870895DE011C960E943D030E944A032F
:10064A0008950E946902A3E0B0E00C943303A0E38A
:10065A000E94550281E28A95F1F70895109639F0C1
:10066A008AEF90E00197F1F7A8951197C9F70895D5
:10067A000024AF0DB01D0895F195E195F04008955D
:10068A00F695E795F695E7950895ED91FC91119702
:10069A0008950590F491E02D08957A936A93FA9358
:1006AA00EA9308955A934A933A932A931A930A9388
:1006BA0008955D814C813B812A81198108810895C1
:00000001FF
