:0A0000000C942F000C9400000C94E7
:10000A0000000C9400000C9400000C9400000C9466
:10001A0000000C9400000C9400000C9400000C9456
:10002A0000000C9400000C9400000C9400000C9446
:10003A0000000C9400000C9400000C9400000C9436
:10004A0000000C9400000C940000010402006002FD
:10005A0054000000F894EE27ECBBF1E0FBBFEBBFC5
:10006A00E5BF8DE0A2E0BB27ED938A95E9F780E032
:10007A0098E0A0E6ED930197E9F7E6E5F0E08591CF
:10008A009591009761F0A591B59105901590BF01E2
:10009A00F00105900D920197E1F7FB01F0CFEFE532
:1000AA00EDBFE8E0EEBFC0E6D2E00C947500E09147
:1000BA006002E2BB949A3ED09498E0916102E2BB5E
:1000CA00959A38D09598E0916202E2BB969A32D01E
:1000DA009698E0916302E2BB979A2CD0979808957C
:1000EA00E0E0EABBEBBBE7BBE8BBE4BBE5BBEFEF99
:1000FA00E1BBE0E0E2BBE3BFE2BFECBFEFBDEEBDB8
:10010A00EDBDECBDE7BDE6BDEBBDEABDE9BDE8BDB1
:10011A00E2BDE5BDE4BDE3BDE9BFE5BFE4BFEAB9C1
:10012A00E0E8E8B9E0E0E0BFE6B9EDB9E6BFBFDF75
:10013A00FECFFFCFA5E0B0E00C94A300109639F0F3
:10014A008AEF90E00197F1F7A8951197C9F70895FA
:00000001FF
