:0E0000000C9438000C9400000C9400000C943A
:10000E0000000C9400000C9400000C9400000C9462
:10001E0000000C9400000C9400000C9400000C9452
:10002E0000000C9400000C9400000C9400000C9442
:10003E0000000C9400000C9400000C9400000C9432
:10004E0000000C940000000000003F065B4F666D40
:10005E007D077F670400040054000A006002580008
:10006E000000F894EE27ECBBF1E0FBBFEBBFE5BF61
:10007E008DE0A2E0BB27ED938A95E9F780E098E04A
:10008E00A0E6ED930197E9F7E2E6F0E08591959110
:10009E00009761F0A591B59105901590BF01F00103
:1000AE0005900D920197E1F7FB01F0CFEFE5EDBF63
:1000BE00E8E0EEBFC0E6D2E00C9474007724EAE0EC
:1000CE007E1650F4A99AE42D40D0A998AA9AE52D4F
:1000DE003CD0AA987394F3CF0895E0E0EABBEBBB53
:1000EE00E7BBE8BBE6E0E4BBE0E0E5BBEFEFE1BB7E
:1000FE00E0E0E2BBE3BFE2BFECBFEFBDEEBDEDBDA6
:10010E00ECBDE7BDE6BDEBBDEABDE9BDE8BDE2BDB8
:10011E00E5BDE4BDE3BDE9BFE5BFE4BFEAB9E0E894
:10012E00E8B9E0E0E0BFE6B9EDB9E6BF55244424F6
:10013E00E5BB5394E9E0E51528F455244394E41502
:10014E0008F44424BBDFF5CFFFCFF0E0E05AFD4FBB
:10015E00E081E2BBAAE0B0E00C94B500109639F055
:10016E008AEF90E00197F1F7A8951197C9F70895D6
:00000001FF
